{
  "address": "0xf3696bB97D5105c5a0Dc03cA0A01B6203502fd7b",
  "abi": [
    {
      "inputs": [
        {
          "internalType": "string",
          "name": "_name",
          "type": "string"
        },
        {
          "internalType": "string",
          "name": "_symbol",
          "type": "string"
        },
        {
          "internalType": "string",
          "name": "_initBaseURI",
          "type": "string"
        },
        {
          "internalType": "string",
          "name": "_initNotRevealedUri",
          "type": "string"
        }
      ],
      "stateMutability": "payable",
      "type": "constructor"
    },
    {
      "anonymous": false,
      "inputs": [
        {
          "indexed": true,
          "internalType": "address",
          "name": "owner",
          "type": "address"
        },
        {
          "indexed": true,
          "internalType": "address",
          "name": "approved",
          "type": "address"
        },
        {
          "indexed": true,
          "internalType": "uint256",
          "name": "tokenId",
          "type": "uint256"
        }
      ],
      "name": "Approval",
      "type": "event"
    },
    {
      "anonymous": false,
      "inputs": [
        {
          "indexed": true,
          "internalType": "address",
          "name": "owner",
          "type": "address"
        },
        {
          "indexed": true,
          "internalType": "address",
          "name": "operator",
          "type": "address"
        },
        {
          "indexed": false,
          "internalType": "bool",
          "name": "approved",
          "type": "bool"
        }
      ],
      "name": "ApprovalForAll",
      "type": "event"
    },
    {
      "anonymous": false,
      "inputs": [
        {
          "indexed": true,
          "internalType": "address",
          "name": "previousOwner",
          "type": "address"
        },
        {
          "indexed": true,
          "internalType": "address",
          "name": "newOwner",
          "type": "address"
        }
      ],
      "name": "OwnershipTransferred",
      "type": "event"
    },
    {
      "anonymous": false,
      "inputs": [
        {
          "indexed": true,
          "internalType": "address",
          "name": "from",
          "type": "address"
        },
        {
          "indexed": true,
          "internalType": "address",
          "name": "to",
          "type": "address"
        },
        {
          "indexed": true,
          "internalType": "uint256",
          "name": "tokenId",
          "type": "uint256"
        }
      ],
      "name": "Transfer",
      "type": "event"
    },
    {
      "anonymous": false,
      "inputs": [
        {
          "indexed": false,
          "internalType": "address",
          "name": "sender",
          "type": "address"
        },
        {
          "indexed": false,
          "internalType": "uint256",
          "name": "prize",
          "type": "uint256"
        }
      ],
      "name": "WinningMint",
      "type": "event"
    },
    {
      "inputs": [
        {
          "internalType": "address",
          "name": "",
          "type": "address"
        }
      ],
      "name": "addressMintedBalance",
      "outputs": [
        {
          "internalType": "uint256",
          "name": "",
          "type": "uint256"
        }
      ],
      "stateMutability": "view",
      "type": "function"
    },
    {
      "inputs": [
        {
          "internalType": "address",
          "name": "to",
          "type": "address"
        },
        {
          "internalType": "uint256",
          "name": "tokenId",
          "type": "uint256"
        }
      ],
      "name": "approve",
      "outputs": [],
      "stateMutability": "nonpayable",
      "type": "function"
    },
    {
      "inputs": [
        {
          "internalType": "address",
          "name": "owner",
          "type": "address"
        }
      ],
      "name": "balanceOf",
      "outputs": [
        {
          "internalType": "uint256",
          "name": "",
          "type": "uint256"
        }
      ],
      "stateMutability": "view",
      "type": "function"
    },
    {
      "inputs": [],
      "name": "baseExtension",
      "outputs": [
        {
          "internalType": "string",
          "name": "",
          "type": "string"
        }
      ],
      "stateMutability": "view",
      "type": "function"
    },
    {
      "inputs": [],
      "name": "baseURI",
      "outputs": [
        {
          "internalType": "string",
          "name": "",
          "type": "string"
        }
      ],
      "stateMutability": "view",
      "type": "function"
    },
    {
      "inputs": [],
      "name": "cost",
      "outputs": [
        {
          "internalType": "uint256",
          "name": "",
          "type": "uint256"
        }
      ],
      "stateMutability": "view",
      "type": "function"
    },
    {
      "inputs": [
        {
          "internalType": "uint256",
          "name": "tokenId",
          "type": "uint256"
        }
      ],
      "name": "getApproved",
      "outputs": [
        {
          "internalType": "address",
          "name": "",
          "type": "address"
        }
      ],
      "stateMutability": "view",
      "type": "function"
    },
    {
      "inputs": [
        {
          "internalType": "address",
          "name": "owner",
          "type": "address"
        },
        {
          "internalType": "address",
          "name": "operator",
          "type": "address"
        }
      ],
      "name": "isApprovedForAll",
      "outputs": [
        {
          "internalType": "bool",
          "name": "",
          "type": "bool"
        }
      ],
      "stateMutability": "view",
      "type": "function"
    },
    {
      "inputs": [
        {
          "internalType": "address",
          "name": "_user",
          "type": "address"
        }
      ],
      "name": "isWhitelisted",
      "outputs": [
        {
          "internalType": "bool",
          "name": "",
          "type": "bool"
        }
      ],
      "stateMutability": "view",
      "type": "function"
    },
    {
      "inputs": [],
      "name": "maxMintAmount",
      "outputs": [
        {
          "internalType": "uint256",
          "name": "",
          "type": "uint256"
        }
      ],
      "stateMutability": "view",
      "type": "function"
    },
    {
      "inputs": [],
      "name": "maxSupply",
      "outputs": [
        {
          "internalType": "uint256",
          "name": "",
          "type": "uint256"
        }
      ],
      "stateMutability": "view",
      "type": "function"
    },
    {
      "inputs": [
        {
          "internalType": "uint256",
          "name": "_mintAmount",
          "type": "uint256"
        }
      ],
      "name": "mint",
      "outputs": [],
      "stateMutability": "payable",
      "type": "function"
    },
    {
      "inputs": [],
      "name": "name",
      "outputs": [
        {
          "internalType": "string",
          "name": "",
          "type": "string"
        }
      ],
      "stateMutability": "view",
      "type": "function"
    },
    {
      "inputs": [],
      "name": "nftPerAddressLimit",
      "outputs": [
        {
          "internalType": "uint256",
          "name": "",
          "type": "uint256"
        }
      ],
      "stateMutability": "view",
      "type": "function"
    },
    {
      "inputs": [],
      "name": "notRevealedUri",
      "outputs": [
        {
          "internalType": "string",
          "name": "",
          "type": "string"
        }
      ],
      "stateMutability": "view",
      "type": "function"
    },
    {
      "inputs": [],
      "name": "onlyWhitelisted",
      "outputs": [
        {
          "internalType": "bool",
          "name": "",
          "type": "bool"
        }
      ],
      "stateMutability": "view",
      "type": "function"
    },
    {
      "inputs": [],
      "name": "owner",
      "outputs": [
        {
          "internalType": "address",
          "name": "",
          "type": "address"
        }
      ],
      "stateMutability": "view",
      "type": "function"
    },
    {
      "inputs": [
        {
          "internalType": "uint256",
          "name": "tokenId",
          "type": "uint256"
        }
      ],
      "name": "ownerOf",
      "outputs": [
        {
          "internalType": "address",
          "name": "",
          "type": "address"
        }
      ],
      "stateMutability": "view",
      "type": "function"
    },
    {
      "inputs": [
        {
          "internalType": "bool",
          "name": "_state",
          "type": "bool"
        }
      ],
      "name": "pause",
      "outputs": [],
      "stateMutability": "nonpayable",
      "type": "function"
    },
    {
      "inputs": [],
      "name": "paused",
      "outputs": [
        {
          "internalType": "bool",
          "name": "",
          "type": "bool"
        }
      ],
      "stateMutability": "view",
      "type": "function"
    },
    {
      "inputs": [],
      "name": "renounceOwnership",
      "outputs": [],
      "stateMutability": "nonpayable",
      "type": "function"
    },
    {
      "inputs": [],
      "name": "reveal",
      "outputs": [],
      "stateMutability": "nonpayable",
      "type": "function"
    },
    {
      "inputs": [],
      "name": "revealed",
      "outputs": [
        {
          "internalType": "bool",
          "name": "",
          "type": "bool"
        }
      ],
      "stateMutability": "view",
      "type": "function"
    },
    {
      "inputs": [
        {
          "internalType": "address",
          "name": "from",
          "type": "address"
        },
        {
          "internalType": "address",
          "name": "to",
          "type": "address"
        },
        {
          "internalType": "uint256",
          "name": "tokenId",
          "type": "uint256"
        }
      ],
      "name": "safeTransferFrom",
      "outputs": [],
      "stateMutability": "nonpayable",
      "type": "function"
    },
    {
      "inputs": [
        {
          "internalType": "address",
          "name": "from",
          "type": "address"
        },
        {
          "internalType": "address",
          "name": "to",
          "type": "address"
        },
        {
          "internalType": "uint256",
          "name": "tokenId",
          "type": "uint256"
        },
        {
          "internalType": "bytes",
          "name": "_data",
          "type": "bytes"
        }
      ],
      "name": "safeTransferFrom",
      "outputs": [],
      "stateMutability": "nonpayable",
      "type": "function"
    },
    {
      "inputs": [
        {
          "internalType": "address",
          "name": "operator",
          "type": "address"
        },
        {
          "internalType": "bool",
          "name": "approved",
          "type": "bool"
        }
      ],
      "name": "setApprovalForAll",
      "outputs": [],
      "stateMutability": "nonpayable",
      "type": "function"
    },
    {
      "inputs": [
        {
          "internalType": "string",
          "name": "_newBaseExtension",
          "type": "string"
        }
      ],
      "name": "setBaseExtension",
      "outputs": [],
      "stateMutability": "nonpayable",
      "type": "function"
    },
    {
      "inputs": [
        {
          "internalType": "string",
          "name": "_newBaseURI",
          "type": "string"
        }
      ],
      "name": "setBaseURI",
      "outputs": [],
      "stateMutability": "nonpayable",
      "type": "function"
    },
    {
      "inputs": [
        {
          "internalType": "uint256",
          "name": "_newCost",
          "type": "uint256"
        }
      ],
      "name": "setCost",
      "outputs": [],
      "stateMutability": "nonpayable",
      "type": "function"
    },
    {
      "inputs": [
        {
          "internalType": "uint256",
          "name": "_limit",
          "type": "uint256"
        }
      ],
      "name": "setNftPerAddressLimit",
      "outputs": [],
      "stateMutability": "nonpayable",
      "type": "function"
    },
    {
      "inputs": [
        {
          "internalType": "string",
          "name": "_notRevealedURI",
          "type": "string"
        }
      ],
      "name": "setNotRevealedURI",
      "outputs": [],
      "stateMutability": "nonpayable",
      "type": "function"
    },
    {
      "inputs": [
        {
          "internalType": "bool",
          "name": "_state",
          "type": "bool"
        }
      ],
      "name": "setOnlyWhitelisted",
      "outputs": [],
      "stateMutability": "nonpayable",
      "type": "function"
    },
    {
      "inputs": [
        {
          "internalType": "uint256",
          "name": "_newmaxMintAmount",
          "type": "uint256"
        }
      ],
      "name": "setmaxMintAmount",
      "outputs": [],
      "stateMutability": "nonpayable",
      "type": "function"
    },
    {
      "inputs": [
        {
          "internalType": "bytes4",
          "name": "interfaceId",
          "type": "bytes4"
        }
      ],
      "name": "supportsInterface",
      "outputs": [
        {
          "internalType": "bool",
          "name": "",
          "type": "bool"
        }
      ],
      "stateMutability": "view",
      "type": "function"
    },
    {
      "inputs": [],
      "name": "symbol",
      "outputs": [
        {
          "internalType": "string",
          "name": "",
          "type": "string"
        }
      ],
      "stateMutability": "view",
      "type": "function"
    },
    {
      "inputs": [
        {
          "internalType": "uint256",
          "name": "index",
          "type": "uint256"
        }
      ],
      "name": "tokenByIndex",
      "outputs": [
        {
          "internalType": "uint256",
          "name": "",
          "type": "uint256"
        }
      ],
      "stateMutability": "view",
      "type": "function"
    },
    {
      "inputs": [
        {
          "internalType": "address",
          "name": "owner",
          "type": "address"
        },
        {
          "internalType": "uint256",
          "name": "index",
          "type": "uint256"
        }
      ],
      "name": "tokenOfOwnerByIndex",
      "outputs": [
        {
          "internalType": "uint256",
          "name": "",
          "type": "uint256"
        }
      ],
      "stateMutability": "view",
      "type": "function"
    },
    {
      "inputs": [
        {
          "internalType": "uint256",
          "name": "tokenId",
          "type": "uint256"
        }
      ],
      "name": "tokenURI",
      "outputs": [
        {
          "internalType": "string",
          "name": "",
          "type": "string"
        }
      ],
      "stateMutability": "view",
      "type": "function"
    },
    {
      "inputs": [],
      "name": "totalSupply",
      "outputs": [
        {
          "internalType": "uint256",
          "name": "",
          "type": "uint256"
        }
      ],
      "stateMutability": "view",
      "type": "function"
    },
    {
      "inputs": [
        {
          "internalType": "address",
          "name": "from",
          "type": "address"
        },
        {
          "internalType": "address",
          "name": "to",
          "type": "address"
        },
        {
          "internalType": "uint256",
          "name": "tokenId",
          "type": "uint256"
        }
      ],
      "name": "transferFrom",
      "outputs": [],
      "stateMutability": "nonpayable",
      "type": "function"
    },
    {
      "inputs": [
        {
          "internalType": "address",
          "name": "newOwner",
          "type": "address"
        }
      ],
      "name": "transferOwnership",
      "outputs": [],
      "stateMutability": "nonpayable",
      "type": "function"
    },
    {
      "inputs": [
        {
          "internalType": "address",
          "name": "_owner",
          "type": "address"
        }
      ],
      "name": "walletOfOwner",
      "outputs": [
        {
          "internalType": "uint256[]",
          "name": "",
          "type": "uint256[]"
        }
      ],
      "stateMutability": "view",
      "type": "function"
    },
    {
      "inputs": [
        {
          "internalType": "address[]",
          "name": "_users",
          "type": "address[]"
        }
      ],
      "name": "whitelistUsers",
      "outputs": [],
      "stateMutability": "nonpayable",
      "type": "function"
    },
    {
      "inputs": [
        {
          "internalType": "uint256",
          "name": "",
          "type": "uint256"
        }
      ],
      "name": "whitelistedAddresses",
      "outputs": [
        {
          "internalType": "address",
          "name": "",
          "type": "address"
        }
      ],
      "stateMutability": "view",
      "type": "function"
    },
    {
      "inputs": [],
      "name": "withdraw",
      "outputs": [],
      "stateMutability": "payable",
      "type": "function"
    }
  ],
  "transactionHash": "0xb074456184c97f1858c6df5bbbc597ff2121e5b5c08d10ccb4b93adba017be24",
  "args": [
    "Mystery Agave Mint",
    "MYSA",
    "ipfs://Qmb2vyKLB7eRgnjhs4PVhD1jRNpmLmdBCNcikfeJwT188g/",
    "ipfs://QmWFbcEmC9PFaWWjDvincjacEm32pak8vT272Zwy98pMkV/1.json"
  ],
  "solcInputHash": "1ff628cbe122ccd124b0ddea2383e058",
  "bytecode": "0x60806040526040518060400160405280600581526020017f2e6a736f6e000000000000000000000000000000000000000000000000000000815250600c908051906020019062000051929190620003b4565b5067016345785d8a0000600e556103e8600f55606460105560146011556000601360006101000a81548160ff0219169083151502179055506000601360016101000a81548160ff0219169083151502179055506001601360026101000a81548160ff02191690831515021790555060405162005c6838038062005c688339818101604052810190620000e49190620004d6565b83838160009080519060200190620000fe929190620003b4565b50806001908051906020019062000117929190620003b4565b5050506200013a6200012e6200016660201b60201c565b6200016e60201b60201c565b6200014b826200023460201b60201c565b6200015c81620002df60201b60201c565b5050505062000799565b600033905090565b6000600a60009054906101000a900473ffffffffffffffffffffffffffffffffffffffff16905081600a60006101000a81548173ffffffffffffffffffffffffffffffffffffffff021916908373ffffffffffffffffffffffffffffffffffffffff1602179055508173ffffffffffffffffffffffffffffffffffffffff168173ffffffffffffffffffffffffffffffffffffffff167f8be0079c531659141344cd1fd0a4f28419497f9722a3daafe3b4186f6b6457e060405160405180910390a35050565b620002446200016660201b60201c565b73ffffffffffffffffffffffffffffffffffffffff166200026a6200038a60201b60201c565b73ffffffffffffffffffffffffffffffffffffffff1614620002c3576040517f08c379a0000000000000000000000000000000000000000000000000000000008152600401620002ba90620005cd565b60405180910390fd5b80600b9080519060200190620002db929190620003b4565b5050565b620002ef6200016660201b60201c565b73ffffffffffffffffffffffffffffffffffffffff16620003156200038a60201b60201c565b73ffffffffffffffffffffffffffffffffffffffff16146200036e576040517f08c379a00000000000000000000000000000000000000000000000000000000081526004016200036590620005cd565b60405180910390fd5b80600d908051906020019062000386929190620003b4565b5050565b6000600a60009054906101000a900473ffffffffffffffffffffffffffffffffffffffff16905090565b828054620003c29062000695565b90600052602060002090601f016020900481019282620003e6576000855562000432565b82601f106200040157805160ff191683800117855562000432565b8280016001018555821562000432579182015b828111156200043157825182559160200191906001019062000414565b5b50905062000441919062000445565b5090565b5b808211156200046057600081600090555060010162000446565b5090565b60006200047b620004758462000618565b620005ef565b9050828152602081018484840111156200049457600080fd5b620004a18482856200065f565b509392505050565b600082601f830112620004bb57600080fd5b8151620004cd84826020860162000464565b91505092915050565b60008060008060808587031215620004ed57600080fd5b600085015167ffffffffffffffff8111156200050857600080fd5b6200051687828801620004a9565b945050602085015167ffffffffffffffff8111156200053457600080fd5b6200054287828801620004a9565b935050604085015167ffffffffffffffff8111156200056057600080fd5b6200056e87828801620004a9565b925050606085015167ffffffffffffffff8111156200058c57600080fd5b6200059a87828801620004a9565b91505092959194509250565b6000620005b56020836200064e565b9150620005c28262000770565b602082019050919050565b60006020820190508181036000830152620005e881620005a6565b9050919050565b6000620005fb6200060e565b9050620006098282620006cb565b919050565b6000604051905090565b600067ffffffffffffffff82111562000636576200063562000730565b5b62000641826200075f565b9050602081019050919050565b600082825260208201905092915050565b60005b838110156200067f57808201518184015260208101905062000662565b838111156200068f576000848401525b50505050565b60006002820490506001821680620006ae57607f821691505b60208210811415620006c557620006c462000701565b5b50919050565b620006d6826200075f565b810181811067ffffffffffffffff82111715620006f857620006f762000730565b5b80604052505050565b7f4e487b7100000000000000000000000000000000000000000000000000000000600052602260045260246000fd5b7f4e487b7100000000000000000000000000000000000000000000000000000000600052604160045260246000fd5b6000601f19601f8301169050919050565b7f4f776e61626c653a2063616c6c6572206973206e6f7420746865206f776e6572600082015250565b6154bf80620007a96000396000f3fe6080604052600436106102725760003560e01c80636352211e1161014f578063b88d4fde116100c1578063d5abeb011161007a578063d5abeb011461095c578063da3ef23f14610987578063e985e9c5146109b0578063edec5f27146109ed578063f2c4ce1e14610a16578063f2fde38b14610a3f57610272565b8063b88d4fde1461083a578063ba4e5c4914610863578063ba7d2c76146108a0578063c6682862146108cb578063c87b56dd146108f6578063d0eb26b01461093357610272565b80638da5cb5b116101135780638da5cb5b1461075d57806395d89b41146107885780639c70b512146107b3578063a0712d68146107de578063a22cb465146107fa578063a475b5dd1461082357610272565b80636352211e146106785780636c0360eb146106b557806370a08231146106e0578063715018a61461071d5780637f00c7a61461073457610272565b80632f745c59116101e8578063438b6300116101ac578063438b63001461055657806344a0d68a146105935780634f6ccce7146105bc57806351830227146105f957806355f804b3146106245780635c975abb1461064d57610272565b80632f745c59146104805780633af32abf146104bd5780633c952764146104fa5780633ccfd60b1461052357806342842e0e1461052d57610272565b8063095ea7b31161023a578063095ea7b31461037057806313faede61461039957806318160ddd146103c457806318cae269146103ef578063239c70ae1461042c57806323b872dd1461045757610272565b806301ffc9a71461027757806302329a29146102b457806306fdde03146102dd578063081812fc14610308578063081c8c4414610345575b600080fd5b34801561028357600080fd5b5061029e60048036038101906102999190613d75565b610a68565b6040516102ab91906144d1565b60405180910390f35b3480156102c057600080fd5b506102db60048036038101906102d69190613d4c565b610ae2565b005b3480156102e957600080fd5b506102f2610b7b565b6040516102ff91906144ec565b60405180910390f35b34801561031457600080fd5b5061032f600480360381019061032a9190613e08565b610c0d565b60405161033c919061441f565b60405180910390f35b34801561035157600080fd5b5061035a610c92565b60405161036791906144ec565b60405180910390f35b34801561037c57600080fd5b5061039760048036038101906103929190613ccb565b610d20565b005b3480156103a557600080fd5b506103ae610e38565b6040516103bb919061489e565b60405180910390f35b3480156103d057600080fd5b506103d9610e3e565b6040516103e6919061489e565b60405180910390f35b3480156103fb57600080fd5b5061041660048036038101906104119190613b60565b610e4b565b604051610423919061489e565b60405180910390f35b34801561043857600080fd5b50610441610e63565b60405161044e919061489e565b60405180910390f35b34801561046357600080fd5b5061047e60048036038101906104799190613bc5565b610e69565b005b34801561048c57600080fd5b506104a760048036038101906104a29190613ccb565b610ec9565b6040516104b4919061489e565b60405180910390f35b3480156104c957600080fd5b506104e460048036038101906104df9190613b60565b610f6e565b6040516104f191906144d1565b60405180910390f35b34801561050657600080fd5b50610521600480360381019061051c9190613d4c565b611043565b005b61052b6110dc565b005b34801561053957600080fd5b50610554600480360381019061054f9190613bc5565b6111d1565b005b34801561056257600080fd5b5061057d60048036038101906105789190613b60565b6111f1565b60405161058a91906144af565b60405180910390f35b34801561059f57600080fd5b506105ba60048036038101906105b59190613e08565b6112eb565b005b3480156105c857600080fd5b506105e360048036038101906105de9190613e08565b611371565b6040516105f0919061489e565b60405180910390f35b34801561060557600080fd5b5061060e611408565b60405161061b91906144d1565b60405180910390f35b34801561063057600080fd5b5061064b60048036038101906106469190613dc7565b61141b565b005b34801561065957600080fd5b506106626114b1565b60405161066f91906144d1565b60405180910390f35b34801561068457600080fd5b5061069f600480360381019061069a9190613e08565b6114c4565b6040516106ac919061441f565b60405180910390f35b3480156106c157600080fd5b506106ca611576565b6040516106d791906144ec565b60405180910390f35b3480156106ec57600080fd5b5061070760048036038101906107029190613b60565b611604565b604051610714919061489e565b60405180910390f35b34801561072957600080fd5b506107326116bc565b005b34801561074057600080fd5b5061075b60048036038101906107569190613e08565b611744565b005b34801561076957600080fd5b506107726117ca565b60405161077f919061441f565b60405180910390f35b34801561079457600080fd5b5061079d6117f4565b6040516107aa91906144ec565b60405180910390f35b3480156107bf57600080fd5b506107c8611886565b6040516107d591906144d1565b60405180910390f35b6107f860048036038101906107f39190613e08565b611899565b005b34801561080657600080fd5b50610821600480360381019061081c9190613c8f565b611d92565b005b34801561082f57600080fd5b50610838611f13565b005b34801561084657600080fd5b50610861600480360381019061085c9190613c14565b611fac565b005b34801561086f57600080fd5b5061088a60048036038101906108859190613e08565b61200e565b604051610897919061441f565b60405180910390f35b3480156108ac57600080fd5b506108b561204d565b6040516108c2919061489e565b60405180910390f35b3480156108d757600080fd5b506108e0612053565b6040516108ed91906144ec565b60405180910390f35b34801561090257600080fd5b5061091d60048036038101906109189190613e08565b6120e1565b60405161092a91906144ec565b60405180910390f35b34801561093f57600080fd5b5061095a60048036038101906109559190613e08565b61223a565b005b34801561096857600080fd5b506109716122c0565b60405161097e919061489e565b60405180910390f35b34801561099357600080fd5b506109ae60048036038101906109a99190613dc7565b6122c6565b005b3480156109bc57600080fd5b506109d760048036038101906109d29190613b89565b61235c565b6040516109e491906144d1565b60405180910390f35b3480156109f957600080fd5b50610a146004803603810190610a0f9190613d07565b6123f0565b005b348015610a2257600080fd5b50610a3d6004803603810190610a389190613dc7565b612490565b005b348015610a4b57600080fd5b50610a666004803603810190610a619190613b60565b612526565b005b60007f780e9d63000000000000000000000000000000000000000000000000000000007bffffffffffffffffffffffffffffffffffffffffffffffffffffffff1916827bffffffffffffffffffffffffffffffffffffffffffffffffffffffff19161480610adb5750610ada8261261e565b5b9050919050565b610aea612700565b73ffffffffffffffffffffffffffffffffffffffff16610b086117ca565b73ffffffffffffffffffffffffffffffffffffffff1614610b5e576040517f08c379a0000000000000000000000000000000000000000000000000000000008152600401610b559061473e565b60405180910390fd5b80601360006101000a81548160ff02191690831515021790555050565b606060008054610b8a90614ba7565b80601f0160208091040260200160405190810160405280929190818152602001828054610bb690614ba7565b8015610c035780601f10610bd857610100808354040283529160200191610c03565b820191906000526020600020905b815481529060010190602001808311610be657829003601f168201915b5050505050905090565b6000610c1882612708565b610c57576040517f08c379a0000000000000000000000000000000000000000000000000000000008152600401610c4e9061471e565b60405180910390fd5b6004600083815260200190815260200160002060009054906101000a900473ffffffffffffffffffffffffffffffffffffffff169050919050565b600d8054610c9f90614ba7565b80601f0160208091040260200160405190810160405280929190818152602001828054610ccb90614ba7565b8015610d185780601f10610ced57610100808354040283529160200191610d18565b820191906000526020600020905b815481529060010190602001808311610cfb57829003601f168201915b505050505081565b6000610d2b826114c4565b90508073ffffffffffffffffffffffffffffffffffffffff168373ffffffffffffffffffffffffffffffffffffffff161415610d9c576040517f08c379a0000000000000000000000000000000000000000000000000000000008152600401610d93906147be565b60405180910390fd5b8073ffffffffffffffffffffffffffffffffffffffff16610dbb612700565b73ffffffffffffffffffffffffffffffffffffffff161480610dea5750610de981610de4612700565b61235c565b5b610e29576040517f08c379a0000000000000000000000000000000000000000000000000000000008152600401610e209061465e565b60405180910390fd5b610e338383612774565b505050565b600e5481565b6000600880549050905090565b60156020528060005260406000206000915090505481565b60105481565b610e7a610e74612700565b8261282d565b610eb9576040517f08c379a0000000000000000000000000000000000000000000000000000000008152600401610eb09061481e565b60405180910390fd5b610ec483838361290b565b505050565b6000610ed483611604565b8210610f15576040517f08c379a0000000000000000000000000000000000000000000000000000000008152600401610f0c9061453e565b60405180910390fd5b600660008473ffffffffffffffffffffffffffffffffffffffff1673ffffffffffffffffffffffffffffffffffffffff168152602001908152602001600020600083815260200190815260200160002054905092915050565b600080600090505b601480549050811015611038578273ffffffffffffffffffffffffffffffffffffffff1660148281548110610fd4577f4e487b7100000000000000000000000000000000000000000000000000000000600052603260045260246000fd5b9060005260206000200160009054906101000a900473ffffffffffffffffffffffffffffffffffffffff1673ffffffffffffffffffffffffffffffffffffffff16141561102557600191505061103e565b808061103090614c0a565b915050610f76565b50600090505b919050565b61104b612700565b73ffffffffffffffffffffffffffffffffffffffff166110696117ca565b73ffffffffffffffffffffffffffffffffffffffff16146110bf576040517f08c379a00000000000000000000000000000000000000000000000000000000081526004016110b69061473e565b60405180910390fd5b80601360026101000a81548160ff02191690831515021790555050565b6110e4612700565b73ffffffffffffffffffffffffffffffffffffffff166111026117ca565b73ffffffffffffffffffffffffffffffffffffffff1614611158576040517f08c379a000000000000000000000000000000000000000000000000000000000815260040161114f9061473e565b60405180910390fd5b60003373ffffffffffffffffffffffffffffffffffffffff164760405161117e9061440a565b60006040518083038185875af1925050503d80600081146111bb576040519150601f19603f3d011682016040523d82523d6000602084013e6111c0565b606091505b50509050806111ce57600080fd5b50565b6111ec83838360405180602001604052806000815250611fac565b505050565b606060006111fe83611604565b905060008167ffffffffffffffff811115611242577f4e487b7100000000000000000000000000000000000000000000000000000000600052604160045260246000fd5b6040519080825280602002602001820160405280156112705781602001602082028036833780820191505090505b50905060005b828110156112e0576112888582610ec9565b8282815181106112c1577f4e487b7100000000000000000000000000000000000000000000000000000000600052603260045260246000fd5b60200260200101818152505080806112d890614c0a565b915050611276565b508092505050919050565b6112f3612700565b73ffffffffffffffffffffffffffffffffffffffff166113116117ca565b73ffffffffffffffffffffffffffffffffffffffff1614611367576040517f08c379a000000000000000000000000000000000000000000000000000000000815260040161135e9061473e565b60405180910390fd5b80600e8190555050565b600061137b610e3e565b82106113bc576040517f08c379a00000000000000000000000000000000000000000000000000000000081526004016113b39061483e565b60405180910390fd5b600882815481106113f6577f4e487b7100000000000000000000000000000000000000000000000000000000600052603260045260246000fd5b90600052602060002001549050919050565b601360019054906101000a900460ff1681565b611423612700565b73ffffffffffffffffffffffffffffffffffffffff166114416117ca565b73ffffffffffffffffffffffffffffffffffffffff1614611497576040517f08c379a000000000000000000000000000000000000000000000000000000000815260040161148e9061473e565b60405180910390fd5b80600b90805190602001906114ad929190613879565b5050565b601360009054906101000a900460ff1681565b6000806002600084815260200190815260200160002060009054906101000a900473ffffffffffffffffffffffffffffffffffffffff169050600073ffffffffffffffffffffffffffffffffffffffff168173ffffffffffffffffffffffffffffffffffffffff16141561156d576040517f08c379a00000000000000000000000000000000000000000000000000000000081526004016115649061469e565b60405180910390fd5b80915050919050565b600b805461158390614ba7565b80601f01602080910402602001604051908101604052809291908181526020018280546115af90614ba7565b80156115fc5780601f106115d1576101008083540402835291602001916115fc565b820191906000526020600020905b8154815290600101906020018083116115df57829003601f168201915b505050505081565b60008073ffffffffffffffffffffffffffffffffffffffff168273ffffffffffffffffffffffffffffffffffffffff161415611675576040517f08c379a000000000000000000000000000000000000000000000000000000000815260040161166c9061467e565b60405180910390fd5b600360008373ffffffffffffffffffffffffffffffffffffffff1673ffffffffffffffffffffffffffffffffffffffff168152602001908152602001600020549050919050565b6116c4612700565b73ffffffffffffffffffffffffffffffffffffffff166116e26117ca565b73ffffffffffffffffffffffffffffffffffffffff1614611738576040517f08c379a000000000000000000000000000000000000000000000000000000000815260040161172f9061473e565b60405180910390fd5b6117426000612b67565b565b61174c612700565b73ffffffffffffffffffffffffffffffffffffffff1661176a6117ca565b73ffffffffffffffffffffffffffffffffffffffff16146117c0576040517f08c379a00000000000000000000000000000000000000000000000000000000081526004016117b79061473e565b60405180910390fd5b8060108190555050565b6000600a60009054906101000a900473ffffffffffffffffffffffffffffffffffffffff16905090565b60606001805461180390614ba7565b80601f016020809104026020016040519081016040528092919081815260200182805461182f90614ba7565b801561187c5780601f106118515761010080835404028352916020019161187c565b820191906000526020600020905b81548152906001019060200180831161185f57829003601f168201915b5050505050905090565b601360029054906101000a900460ff1681565b601360009054906101000a900460ff16156118e9576040517f08c379a00000000000000000000000000000000000000000000000000000000081526004016118e09061475e565b60405180910390fd5b60006118f3610e3e565b905060008211611938576040517f08c379a000000000000000000000000000000000000000000000000000000000815260040161192f9061487e565b60405180910390fd5b60105482111561197d576040517f08c379a0000000000000000000000000000000000000000000000000000000008152600401611974906146de565b60405180910390fd5b600f54828261198c91906149dc565b11156119cd576040517f08c379a00000000000000000000000000000000000000000000000000000000081526004016119c4906146be565b60405180910390fd5b6119d56117ca565b73ffffffffffffffffffffffffffffffffffffffff163373ffffffffffffffffffffffffffffffffffffffff1614611b525760011515601360029054906101000a900460ff1615151415611b0157611a2c33610f6e565b611a6b576040517f08c379a0000000000000000000000000000000000000000000000000000000008152600401611a629061485e565b60405180910390fd5b6000601560003373ffffffffffffffffffffffffffffffffffffffff1673ffffffffffffffffffffffffffffffffffffffff1681526020019081526020016000205490506011548382611abe91906149dc565b1115611aff576040517f08c379a0000000000000000000000000000000000000000000000000000000008152600401611af6906145be565b60405180910390fd5b505b81600e54611b0f9190614a63565b341015611b51576040517f08c379a0000000000000000000000000000000000000000000000000000000008152600401611b48906147fe565b60405180910390fd5b5b6000600190505b828111611d8d57601560003373ffffffffffffffffffffffffffffffffffffffff1673ffffffffffffffffffffffffffffffffffffffff1681526020019081526020016000206000815480929190611bb090614c0a565b9190505550611bca338284611bc591906149dc565b612c2d565b600060646012544244611bdd91906149dc565b611be791906149dc565b611bf19190614c53565b9050806012819055506032811015611d7957611c426040518060400160405280600781526020017f257320776f6e210000000000000000000000000000000000000000000000000081525033612c4b565b600066b1a2bc2ec50000905047811115611c91576040517f08c379a0000000000000000000000000000000000000000000000000000000008152600401611c88906147de565b60405180910390fd5b60003373ffffffffffffffffffffffffffffffffffffffff1682604051611cb79061440a565b60006040518083038185875af1925050503d8060008114611cf4576040519150601f19603f3d011682016040523d82523d6000602084013e611cf9565b606091505b5050905080611d3d576040517f08c379a0000000000000000000000000000000000000000000000000000000008152600401611d349061461e565b60405180910390fd5b7f2e008cac0ce8b90dd9e80248b5f8d05f95d5d25cc6787b754ba5dd09d12052d43383604051611d6e929190614486565b60405180910390a150505b508080611d8590614c0a565b915050611b59565b505050565b611d9a612700565b73ffffffffffffffffffffffffffffffffffffffff168273ffffffffffffffffffffffffffffffffffffffff161415611e08576040517f08c379a0000000000000000000000000000000000000000000000000000000008152600401611dff906145fe565b60405180910390fd5b8060056000611e15612700565b73ffffffffffffffffffffffffffffffffffffffff1673ffffffffffffffffffffffffffffffffffffffff16815260200190815260200160002060008473ffffffffffffffffffffffffffffffffffffffff1673ffffffffffffffffffffffffffffffffffffffff16815260200190815260200160002060006101000a81548160ff0219169083151502179055508173ffffffffffffffffffffffffffffffffffffffff16611ec2612700565b73ffffffffffffffffffffffffffffffffffffffff167f17307eab39ab6107e8899845ad3d59bd9653f200f220920489ca2b5937696c3183604051611f0791906144d1565b60405180910390a35050565b611f1b612700565b73ffffffffffffffffffffffffffffffffffffffff16611f396117ca565b73ffffffffffffffffffffffffffffffffffffffff1614611f8f576040517f08c379a0000000000000000000000000000000000000000000000000000000008152600401611f869061473e565b60405180910390fd5b6001601360016101000a81548160ff021916908315150217905550565b611fbd611fb7612700565b8361282d565b611ffc576040517f08c379a0000000000000000000000000000000000000000000000000000000008152600401611ff39061481e565b60405180910390fd5b61200884848484612ce7565b50505050565b6014818154811061201e57600080fd5b906000526020600020016000915054906101000a900473ffffffffffffffffffffffffffffffffffffffff1681565b60115481565b600c805461206090614ba7565b80601f016020809104026020016040519081016040528092919081815260200182805461208c90614ba7565b80156120d95780601f106120ae576101008083540402835291602001916120d9565b820191906000526020600020905b8154815290600101906020018083116120bc57829003601f168201915b505050505081565b60606120ec82612708565b61212b576040517f08c379a00000000000000000000000000000000000000000000000000000000081526004016121229061479e565b60405180910390fd5b60001515601360019054906101000a900460ff16151514156121d957600d805461215490614ba7565b80601f016020809104026020016040519081016040528092919081815260200182805461218090614ba7565b80156121cd5780601f106121a2576101008083540402835291602001916121cd565b820191906000526020600020905b8154815290600101906020018083116121b057829003601f168201915b50505050509050612235565b60006121e3612d43565b905060008151116122035760405180602001604052806000815250612231565b8061220d84612dd5565b600c604051602001612221939291906143d9565b6040516020818303038152906040525b9150505b919050565b612242612700565b73ffffffffffffffffffffffffffffffffffffffff166122606117ca565b73ffffffffffffffffffffffffffffffffffffffff16146122b6576040517f08c379a00000000000000000000000000000000000000000000000000000000081526004016122ad9061473e565b60405180910390fd5b8060118190555050565b600f5481565b6122ce612700565b73ffffffffffffffffffffffffffffffffffffffff166122ec6117ca565b73ffffffffffffffffffffffffffffffffffffffff1614612342576040517f08c379a00000000000000000000000000000000000000000000000000000000081526004016123399061473e565b60405180910390fd5b80600c9080519060200190612358929190613879565b5050565b6000600560008473ffffffffffffffffffffffffffffffffffffffff1673ffffffffffffffffffffffffffffffffffffffff16815260200190815260200160002060008373ffffffffffffffffffffffffffffffffffffffff1673ffffffffffffffffffffffffffffffffffffffff16815260200190815260200160002060009054906101000a900460ff16905092915050565b6123f8612700565b73ffffffffffffffffffffffffffffffffffffffff166124166117ca565b73ffffffffffffffffffffffffffffffffffffffff161461246c576040517f08c379a00000000000000000000000000000000000000000000000000000000081526004016124639061473e565b60405180910390fd5b6014600061247a91906138ff565b81816014919061248b929190613920565b505050565b612498612700565b73ffffffffffffffffffffffffffffffffffffffff166124b66117ca565b73ffffffffffffffffffffffffffffffffffffffff161461250c576040517f08c379a00000000000000000000000000000000000000000000000000000000081526004016125039061473e565b60405180910390fd5b80600d9080519060200190612522929190613879565b5050565b61252e612700565b73ffffffffffffffffffffffffffffffffffffffff1661254c6117ca565b73ffffffffffffffffffffffffffffffffffffffff16146125a2576040517f08c379a00000000000000000000000000000000000000000000000000000000081526004016125999061473e565b60405180910390fd5b600073ffffffffffffffffffffffffffffffffffffffff168173ffffffffffffffffffffffffffffffffffffffff161415612612576040517f08c379a00000000000000000000000000000000000000000000000000000000081526004016126099061457e565b60405180910390fd5b61261b81612b67565b50565b60007f80ac58cd000000000000000000000000000000000000000000000000000000007bffffffffffffffffffffffffffffffffffffffffffffffffffffffff1916827bffffffffffffffffffffffffffffffffffffffffffffffffffffffff191614806126e957507f5b5e139f000000000000000000000000000000000000000000000000000000007bffffffffffffffffffffffffffffffffffffffffffffffffffffffff1916827bffffffffffffffffffffffffffffffffffffffffffffffffffffffff1916145b806126f957506126f882612f82565b5b9050919050565b600033905090565b60008073ffffffffffffffffffffffffffffffffffffffff166002600084815260200190815260200160002060009054906101000a900473ffffffffffffffffffffffffffffffffffffffff1673ffffffffffffffffffffffffffffffffffffffff1614159050919050565b816004600083815260200190815260200160002060006101000a81548173ffffffffffffffffffffffffffffffffffffffff021916908373ffffffffffffffffffffffffffffffffffffffff160217905550808273ffffffffffffffffffffffffffffffffffffffff166127e7836114c4565b73ffffffffffffffffffffffffffffffffffffffff167f8c5be1e5ebec7d5bd14f71427d1e84f3dd0314c0f7b2291e5b200ac8c7c3b92560405160405180910390a45050565b600061283882612708565b612877576040517f08c379a000000000000000000000000000000000000000000000000000000000815260040161286e9061463e565b60405180910390fd5b6000612882836114c4565b90508073ffffffffffffffffffffffffffffffffffffffff168473ffffffffffffffffffffffffffffffffffffffff1614806128f157508373ffffffffffffffffffffffffffffffffffffffff166128d984610c0d565b73ffffffffffffffffffffffffffffffffffffffff16145b806129025750612901818561235c565b5b91505092915050565b8273ffffffffffffffffffffffffffffffffffffffff1661292b826114c4565b73ffffffffffffffffffffffffffffffffffffffff1614612981576040517f08c379a00000000000000000000000000000000000000000000000000000000081526004016129789061477e565b60405180910390fd5b600073ffffffffffffffffffffffffffffffffffffffff168273ffffffffffffffffffffffffffffffffffffffff1614156129f1576040517f08c379a00000000000000000000000000000000000000000000000000000000081526004016129e8906145de565b60405180910390fd5b6129fc838383612fec565b612a07600082612774565b6001600360008573ffffffffffffffffffffffffffffffffffffffff1673ffffffffffffffffffffffffffffffffffffffff1681526020019081526020016000206000828254612a579190614abd565b925050819055506001600360008473ffffffffffffffffffffffffffffffffffffffff1673ffffffffffffffffffffffffffffffffffffffff1681526020019081526020016000206000828254612aae91906149dc565b92505081905550816002600083815260200190815260200160002060006101000a81548173ffffffffffffffffffffffffffffffffffffffff021916908373ffffffffffffffffffffffffffffffffffffffff160217905550808273ffffffffffffffffffffffffffffffffffffffff168473ffffffffffffffffffffffffffffffffffffffff167fddf252ad1be2c89b69c2b068fc378daa952ba7f163c4a11628f55a4df523b3ef60405160405180910390a4505050565b6000600a60009054906101000a900473ffffffffffffffffffffffffffffffffffffffff16905081600a60006101000a81548173ffffffffffffffffffffffffffffffffffffffff021916908373ffffffffffffffffffffffffffffffffffffffff1602179055508173ffffffffffffffffffffffffffffffffffffffff168173ffffffffffffffffffffffffffffffffffffffff167f8be0079c531659141344cd1fd0a4f28419497f9722a3daafe3b4186f6b6457e060405160405180910390a35050565b612c47828260405180602001604052806000815250613100565b5050565b612ce38282604051602401612c6192919061450e565b6040516020818303038152906040527f319af333000000000000000000000000000000000000000000000000000000007bffffffffffffffffffffffffffffffffffffffffffffffffffffffff19166020820180517bffffffffffffffffffffffffffffffffffffffffffffffffffffffff838183161783525050505061315b565b5050565b612cf284848461290b565b612cfe84848484613184565b612d3d576040517f08c379a0000000000000000000000000000000000000000000000000000000008152600401612d349061455e565b60405180910390fd5b50505050565b6060600b8054612d5290614ba7565b80601f0160208091040260200160405190810160405280929190818152602001828054612d7e90614ba7565b8015612dcb5780601f10612da057610100808354040283529160200191612dcb565b820191906000526020600020905b815481529060010190602001808311612dae57829003601f168201915b5050505050905090565b60606000821415612e1d576040518060400160405280600181526020017f30000000000000000000000000000000000000000000000000000000000000008152509050612f7d565b600082905060005b60008214612e4f578080612e3890614c0a565b915050600a82612e489190614a32565b9150612e25565b60008167ffffffffffffffff811115612e91577f4e487b7100000000000000000000000000000000000000000000000000000000600052604160045260246000fd5b6040519080825280601f01601f191660200182016040528015612ec35781602001600182028036833780820191505090505b5090505b60008514612f7657600182612edc9190614abd565b9150600a85612eeb9190614c53565b6030612ef791906149dc565b60f81b818381518110612f33577f4e487b7100000000000000000000000000000000000000000000000000000000600052603260045260246000fd5b60200101907effffffffffffffffffffffffffffffffffffffffffffffffffffffffffffff1916908160001a905350600a85612f6f9190614a32565b9450612ec7565b8093505050505b919050565b60007f01ffc9a7000000000000000000000000000000000000000000000000000000007bffffffffffffffffffffffffffffffffffffffffffffffffffffffff1916827bffffffffffffffffffffffffffffffffffffffffffffffffffffffff1916149050919050565b612ff783838361331b565b600073ffffffffffffffffffffffffffffffffffffffff168373ffffffffffffffffffffffffffffffffffffffff16141561303a5761303581613320565b613079565b8173ffffffffffffffffffffffffffffffffffffffff168373ffffffffffffffffffffffffffffffffffffffff1614613078576130778382613369565b5b5b600073ffffffffffffffffffffffffffffffffffffffff168273ffffffffffffffffffffffffffffffffffffffff1614156130bc576130b7816134d6565b6130fb565b8273ffffffffffffffffffffffffffffffffffffffff168273ffffffffffffffffffffffffffffffffffffffff16146130fa576130f98282613619565b5b5b505050565b61310a8383613698565b6131176000848484613184565b613156576040517f08c379a000000000000000000000000000000000000000000000000000000000815260040161314d9061455e565b60405180910390fd5b505050565b60008151905060006a636f6e736f6c652e6c6f679050602083016000808483855afa5050505050565b60006131a58473ffffffffffffffffffffffffffffffffffffffff16613866565b1561330e578373ffffffffffffffffffffffffffffffffffffffff1663150b7a026131ce612700565b8786866040518563ffffffff1660e01b81526004016131f0949392919061443a565b602060405180830381600087803b15801561320a57600080fd5b505af192505050801561323b57506040513d601f19601f820116820180604052508101906132389190613d9e565b60015b6132be573d806000811461326b576040519150601f19603f3d011682016040523d82523d6000602084013e613270565b606091505b506000815114156132b6576040517f08c379a00000000000000000000000000000000000000000000000000000000081526004016132ad9061455e565b60405180910390fd5b805181602001fd5b63150b7a0260e01b7bffffffffffffffffffffffffffffffffffffffffffffffffffffffff1916817bffffffffffffffffffffffffffffffffffffffffffffffffffffffff191614915050613313565b600190505b949350505050565b505050565b6008805490506009600083815260200190815260200160002081905550600881908060018154018082558091505060019003906000526020600020016000909190919091505550565b6000600161337684611604565b6133809190614abd565b9050600060076000848152602001908152602001600020549050818114613465576000600660008673ffffffffffffffffffffffffffffffffffffffff1673ffffffffffffffffffffffffffffffffffffffff168152602001908152602001600020600084815260200190815260200160002054905080600660008773ffffffffffffffffffffffffffffffffffffffff1673ffffffffffffffffffffffffffffffffffffffff168152602001908152602001600020600084815260200190815260200160002081905550816007600083815260200190815260200160002081905550505b6007600084815260200190815260200160002060009055600660008573ffffffffffffffffffffffffffffffffffffffff1673ffffffffffffffffffffffffffffffffffffffff16815260200190815260200160002060008381526020019081526020016000206000905550505050565b600060016008805490506134ea9190614abd565b9050600060096000848152602001908152602001600020549050600060088381548110613540577f4e487b7100000000000000000000000000000000000000000000000000000000600052603260045260246000fd5b906000526020600020015490508060088381548110613588577f4e487b7100000000000000000000000000000000000000000000000000000000600052603260045260246000fd5b9060005260206000200181905550816009600083815260200190815260200160002081905550600960008581526020019081526020016000206000905560088054806135fd577f4e487b7100000000000000000000000000000000000000000000000000000000600052603160045260246000fd5b6001900381819060005260206000200160009055905550505050565b600061362483611604565b905081600660008573ffffffffffffffffffffffffffffffffffffffff1673ffffffffffffffffffffffffffffffffffffffff168152602001908152602001600020600083815260200190815260200160002081905550806007600084815260200190815260200160002081905550505050565b600073ffffffffffffffffffffffffffffffffffffffff168273ffffffffffffffffffffffffffffffffffffffff161415613708576040517f08c379a00000000000000000000000000000000000000000000000000000000081526004016136ff906146fe565b60405180910390fd5b61371181612708565b15613751576040517f08c379a00000000000000000000000000000000000000000000000000000000081526004016137489061459e565b60405180910390fd5b61375d60008383612fec565b6001600360008473ffffffffffffffffffffffffffffffffffffffff1673ffffffffffffffffffffffffffffffffffffffff16815260200190815260200160002060008282546137ad91906149dc565b92505081905550816002600083815260200190815260200160002060006101000a81548173ffffffffffffffffffffffffffffffffffffffff021916908373ffffffffffffffffffffffffffffffffffffffff160217905550808273ffffffffffffffffffffffffffffffffffffffff16600073ffffffffffffffffffffffffffffffffffffffff167fddf252ad1be2c89b69c2b068fc378daa952ba7f163c4a11628f55a4df523b3ef60405160405180910390a45050565b600080823b905060008111915050919050565b82805461388590614ba7565b90600052602060002090601f0160209004810192826138a757600085556138ee565b82601f106138c057805160ff19168380011785556138ee565b828001600101855582156138ee579182015b828111156138ed5782518255916020019190600101906138d2565b5b5090506138fb91906139c0565b5090565b508054600082559060005260206000209081019061391d91906139c0565b50565b8280548282559060005260206000209081019282156139af579160200282015b828111156139ae57823573ffffffffffffffffffffffffffffffffffffffff168260006101000a81548173ffffffffffffffffffffffffffffffffffffffff021916908373ffffffffffffffffffffffffffffffffffffffff16021790555091602001919060010190613940565b5b5090506139bc91906139c0565b5090565b5b808211156139d95760008160009055506001016139c1565b5090565b60006139f06139eb846148de565b6148b9565b905082815260208101848484011115613a0857600080fd5b613a13848285614b65565b509392505050565b6000613a2e613a298461490f565b6148b9565b905082815260208101848484011115613a4657600080fd5b613a51848285614b65565b509392505050565b600081359050613a688161542d565b92915050565b60008083601f840112613a8057600080fd5b8235905067ffffffffffffffff811115613a9957600080fd5b602083019150836020820283011115613ab157600080fd5b9250929050565b600081359050613ac781615444565b92915050565b600081359050613adc8161545b565b92915050565b600081519050613af18161545b565b92915050565b600082601f830112613b0857600080fd5b8135613b188482602086016139dd565b91505092915050565b600082601f830112613b3257600080fd5b8135613b42848260208601613a1b565b91505092915050565b600081359050613b5a81615472565b92915050565b600060208284031215613b7257600080fd5b6000613b8084828501613a59565b91505092915050565b60008060408385031215613b9c57600080fd5b6000613baa85828601613a59565b9250506020613bbb85828601613a59565b9150509250929050565b600080600060608486031215613bda57600080fd5b6000613be886828701613a59565b9350506020613bf986828701613a59565b9250506040613c0a86828701613b4b565b9150509250925092565b60008060008060808587031215613c2a57600080fd5b6000613c3887828801613a59565b9450506020613c4987828801613a59565b9350506040613c5a87828801613b4b565b925050606085013567ffffffffffffffff811115613c7757600080fd5b613c8387828801613af7565b91505092959194509250565b60008060408385031215613ca257600080fd5b6000613cb085828601613a59565b9250506020613cc185828601613ab8565b9150509250929050565b60008060408385031215613cde57600080fd5b6000613cec85828601613a59565b9250506020613cfd85828601613b4b565b9150509250929050565b60008060208385031215613d1a57600080fd5b600083013567ffffffffffffffff811115613d3457600080fd5b613d4085828601613a6e565b92509250509250929050565b600060208284031215613d5e57600080fd5b6000613d6c84828501613ab8565b91505092915050565b600060208284031215613d8757600080fd5b6000613d9584828501613acd565b91505092915050565b600060208284031215613db057600080fd5b6000613dbe84828501613ae2565b91505092915050565b600060208284031215613dd957600080fd5b600082013567ffffffffffffffff811115613df357600080fd5b613dff84828501613b21565b91505092915050565b600060208284031215613e1a57600080fd5b6000613e2884828501613b4b565b91505092915050565b6000613e3d83836143bb565b60208301905092915050565b613e5281614af1565b82525050565b6000613e6382614965565b613e6d8185614993565b9350613e7883614940565b8060005b83811015613ea9578151613e908882613e31565b9750613e9b83614986565b925050600181019050613e7c565b5085935050505092915050565b613ebf81614b03565b82525050565b6000613ed082614970565b613eda81856149a4565b9350613eea818560208601614b74565b613ef381614d40565b840191505092915050565b6000613f098261497b565b613f1381856149c0565b9350613f23818560208601614b74565b613f2c81614d40565b840191505092915050565b6000613f428261497b565b613f4c81856149d1565b9350613f5c818560208601614b74565b80840191505092915050565b60008154613f7581614ba7565b613f7f81866149d1565b94506001821660008114613f9a5760018114613fab57613fde565b60ff19831686528186019350613fde565b613fb485614950565b60005b83811015613fd657815481890152600182019150602081019050613fb7565b838801955050505b50505092915050565b6000613ff4602b836149c0565b9150613fff82614d51565b604082019050919050565b60006140176032836149c0565b915061402282614da0565b604082019050919050565b600061403a6026836149c0565b915061404582614def565b604082019050919050565b600061405d601c836149c0565b915061406882614e3e565b602082019050919050565b6000614080601c836149c0565b915061408b82614e67565b602082019050919050565b60006140a36024836149c0565b91506140ae82614e90565b604082019050919050565b60006140c66019836149c0565b91506140d182614edf565b602082019050919050565b60006140e96027836149c0565b91506140f482614f08565b604082019050919050565b600061410c602c836149c0565b915061411782614f57565b604082019050919050565b600061412f6038836149c0565b915061413a82614fa6565b604082019050919050565b6000614152602a836149c0565b915061415d82614ff5565b604082019050919050565b60006141756029836149c0565b915061418082615044565b604082019050919050565b60006141986016836149c0565b91506141a382615093565b602082019050919050565b60006141bb6024836149c0565b91506141c6826150bc565b604082019050919050565b60006141de6020836149c0565b91506141e98261510b565b602082019050919050565b6000614201602c836149c0565b915061420c82615134565b604082019050919050565b60006142246020836149c0565b915061422f82615183565b602082019050919050565b60006142476016836149c0565b9150614252826151ac565b602082019050919050565b600061426a6029836149c0565b9150614275826151d5565b604082019050919050565b600061428d602f836149c0565b915061429882615224565b604082019050919050565b60006142b06021836149c0565b91506142bb82615273565b604082019050919050565b60006142d36035836149c0565b91506142de826152c2565b604082019050919050565b60006142f66000836149b5565b915061430182615311565b600082019050919050565b60006143196012836149c0565b915061432482615314565b602082019050919050565b600061433c6031836149c0565b91506143478261533d565b604082019050919050565b600061435f602c836149c0565b915061436a8261538c565b604082019050919050565b60006143826017836149c0565b915061438d826153db565b602082019050919050565b60006143a5601b836149c0565b91506143b082615404565b602082019050919050565b6143c481614b5b565b82525050565b6143d381614b5b565b82525050565b60006143e58286613f37565b91506143f18285613f37565b91506143fd8284613f68565b9150819050949350505050565b6000614415826142e9565b9150819050919050565b60006020820190506144346000830184613e49565b92915050565b600060808201905061444f6000830187613e49565b61445c6020830186613e49565b61446960408301856143ca565b818103606083015261447b8184613ec5565b905095945050505050565b600060408201905061449b6000830185613e49565b6144a860208301846143ca565b9392505050565b600060208201905081810360008301526144c98184613e58565b905092915050565b60006020820190506144e66000830184613eb6565b92915050565b600060208201905081810360008301526145068184613efe565b905092915050565b600060408201905081810360008301526145288185613efe565b90506145376020830184613e49565b9392505050565b6000602082019050818103600083015261455781613fe7565b9050919050565b600060208201905081810360008301526145778161400a565b9050919050565b600060208201905081810360008301526145978161402d565b9050919050565b600060208201905081810360008301526145b781614050565b9050919050565b600060208201905081810360008301526145d781614073565b9050919050565b600060208201905081810360008301526145f781614096565b9050919050565b60006020820190508181036000830152614617816140b9565b9050919050565b60006020820190508181036000830152614637816140dc565b9050919050565b60006020820190508181036000830152614657816140ff565b9050919050565b6000602082019050818103600083015261467781614122565b9050919050565b6000602082019050818103600083015261469781614145565b9050919050565b600060208201905081810360008301526146b781614168565b9050919050565b600060208201905081810360008301526146d78161418b565b9050919050565b600060208201905081810360008301526146f7816141ae565b9050919050565b60006020820190508181036000830152614717816141d1565b9050919050565b60006020820190508181036000830152614737816141f4565b9050919050565b6000602082019050818103600083015261475781614217565b9050919050565b600060208201905081810360008301526147778161423a565b9050919050565b600060208201905081810360008301526147978161425d565b9050919050565b600060208201905081810360008301526147b781614280565b9050919050565b600060208201905081810360008301526147d7816142a3565b9050919050565b600060208201905081810360008301526147f7816142c6565b9050919050565b600060208201905081810360008301526148178161430c565b9050919050565b600060208201905081810360008301526148378161432f565b9050919050565b6000602082019050818103600083015261485781614352565b9050919050565b6000602082019050818103600083015261487781614375565b9050919050565b6000602082019050818103600083015261489781614398565b9050919050565b60006020820190506148b360008301846143ca565b92915050565b60006148c36148d4565b90506148cf8282614bd9565b919050565b6000604051905090565b600067ffffffffffffffff8211156148f9576148f8614d11565b5b61490282614d40565b9050602081019050919050565b600067ffffffffffffffff82111561492a57614929614d11565b5b61493382614d40565b9050602081019050919050565b6000819050602082019050919050565b60008190508160005260206000209050919050565b600081519050919050565b600081519050919050565b600081519050919050565b6000602082019050919050565b600082825260208201905092915050565b600082825260208201905092915050565b600081905092915050565b600082825260208201905092915050565b600081905092915050565b60006149e782614b5b565b91506149f283614b5b565b9250827fffffffffffffffffffffffffffffffffffffffffffffffffffffffffffffffff03821115614a2757614a26614c84565b5b828201905092915050565b6000614a3d82614b5b565b9150614a4883614b5b565b925082614a5857614a57614cb3565b5b828204905092915050565b6000614a6e82614b5b565b9150614a7983614b5b565b9250817fffffffffffffffffffffffffffffffffffffffffffffffffffffffffffffffff0483118215151615614ab257614ab1614c84565b5b828202905092915050565b6000614ac882614b5b565b9150614ad383614b5b565b925082821015614ae657614ae5614c84565b5b828203905092915050565b6000614afc82614b3b565b9050919050565b60008115159050919050565b60007fffffffff0000000000000000000000000000000000000000000000000000000082169050919050565b600073ffffffffffffffffffffffffffffffffffffffff82169050919050565b6000819050919050565b82818337600083830152505050565b60005b83811015614b92578082015181840152602081019050614b77565b83811115614ba1576000848401525b50505050565b60006002820490506001821680614bbf57607f821691505b60208210811415614bd357614bd2614ce2565b5b50919050565b614be282614d40565b810181811067ffffffffffffffff82111715614c0157614c00614d11565b5b80604052505050565b6000614c1582614b5b565b91507fffffffffffffffffffffffffffffffffffffffffffffffffffffffffffffffff821415614c4857614c47614c84565b5b600182019050919050565b6000614c5e82614b5b565b9150614c6983614b5b565b925082614c7957614c78614cb3565b5b828206905092915050565b7f4e487b7100000000000000000000000000000000000000000000000000000000600052601160045260246000fd5b7f4e487b7100000000000000000000000000000000000000000000000000000000600052601260045260246000fd5b7f4e487b7100000000000000000000000000000000000000000000000000000000600052602260045260246000fd5b7f4e487b7100000000000000000000000000000000000000000000000000000000600052604160045260246000fd5b6000601f19601f8301169050919050565b7f455243373231456e756d657261626c653a206f776e657220696e646578206f7560008201527f74206f6620626f756e6473000000000000000000000000000000000000000000602082015250565b7f4552433732313a207472616e7366657220746f206e6f6e20455243373231526560008201527f63656976657220696d706c656d656e7465720000000000000000000000000000602082015250565b7f4f776e61626c653a206e6577206f776e657220697320746865207a65726f206160008201527f6464726573730000000000000000000000000000000000000000000000000000602082015250565b7f4552433732313a20746f6b656e20616c7265616479206d696e74656400000000600082015250565b7f6d6178204e465420706572206164647265737320657863656564656400000000600082015250565b7f4552433732313a207472616e7366657220746f20746865207a65726f2061646460008201527f7265737300000000000000000000000000000000000000000000000000000000602082015250565b7f4552433732313a20617070726f766520746f2063616c6c657200000000000000600082015250565b7f4661696c656420746f207769746864726177206d6f6e65792066726f6d20636f60008201527f6e74726163742e00000000000000000000000000000000000000000000000000602082015250565b7f4552433732313a206f70657261746f7220717565727920666f72206e6f6e657860008201527f697374656e7420746f6b656e0000000000000000000000000000000000000000602082015250565b7f4552433732313a20617070726f76652063616c6c6572206973206e6f74206f7760008201527f6e6572206e6f7220617070726f76656420666f7220616c6c0000000000000000602082015250565b7f4552433732313a2062616c616e636520717565727920666f7220746865207a6560008201527f726f206164647265737300000000000000000000000000000000000000000000602082015250565b7f4552433732313a206f776e657220717565727920666f72206e6f6e657869737460008201527f656e7420746f6b656e0000000000000000000000000000000000000000000000602082015250565b7f6d6178204e4654206c696d697420657863656564656400000000000000000000600082015250565b7f6d6178206d696e7420616d6f756e74207065722073657373696f6e206578636560008201527f6564656400000000000000000000000000000000000000000000000000000000602082015250565b7f4552433732313a206d696e7420746f20746865207a65726f2061646472657373600082015250565b7f4552433732313a20617070726f76656420717565727920666f72206e6f6e657860008201527f697374656e7420746f6b656e0000000000000000000000000000000000000000602082015250565b7f4f776e61626c653a2063616c6c6572206973206e6f7420746865206f776e6572600082015250565b7f74686520636f6e74726163742069732070617573656400000000000000000000600082015250565b7f4552433732313a207472616e73666572206f6620746f6b656e2074686174206960008201527f73206e6f74206f776e0000000000000000000000000000000000000000000000602082015250565b7f4552433732314d657461646174613a2055524920717565727920666f72206e6f60008201527f6e6578697374656e7420746f6b656e0000000000000000000000000000000000602082015250565b7f4552433732313a20617070726f76616c20746f2063757272656e74206f776e6560008201527f7200000000000000000000000000000000000000000000000000000000000000602082015250565b7f547279696e6720746f207769746864726177206d6f7265206d6f6e657920746860008201527f616e207468657920636f6e7472616374206861732e0000000000000000000000602082015250565b50565b7f696e73756666696369656e742066756e64730000000000000000000000000000600082015250565b7f4552433732313a207472616e736665722063616c6c6572206973206e6f74206f60008201527f776e6572206e6f7220617070726f766564000000000000000000000000000000602082015250565b7f455243373231456e756d657261626c653a20676c6f62616c20696e646578206f60008201527f7574206f6620626f756e64730000000000000000000000000000000000000000602082015250565b7f75736572206973206e6f742077686974656c6973746564000000000000000000600082015250565b7f6e65656420746f206d696e74206174206c656173742031204e46540000000000600082015250565b61543681614af1565b811461544157600080fd5b50565b61544d81614b03565b811461545857600080fd5b50565b61546481614b0f565b811461546f57600080fd5b50565b61547b81614b5b565b811461548657600080fd5b5056fea2646970667358221220f95cc77093d0ad9da4a0c56b92578ca952e6efadb1f03d09072443e82c0469df64736f6c63430008040033",
  "devdoc": {
    "kind": "dev",
    "methods": {
      "approve(address,uint256)": {
        "details": "See {IERC721-approve}."
      },
      "balanceOf(address)": {
        "details": "See {IERC721-balanceOf}."
      },
      "getApproved(uint256)": {
        "details": "See {IERC721-getApproved}."
      },
      "isApprovedForAll(address,address)": {
        "details": "See {IERC721-isApprovedForAll}."
      },
      "name()": {
        "details": "See {IERC721Metadata-name}."
      },
      "owner()": {
        "details": "Returns the address of the current owner."
      },
      "ownerOf(uint256)": {
        "details": "See {IERC721-ownerOf}."
      },
      "renounceOwnership()": {
        "details": "Leaves the contract without owner. It will not be possible to call `onlyOwner` functions anymore. Can only be called by the current owner. NOTE: Renouncing ownership will leave the contract without an owner, thereby removing any functionality that is only available to the owner."
      },
      "safeTransferFrom(address,address,uint256)": {
        "details": "See {IERC721-safeTransferFrom}."
      },
      "safeTransferFrom(address,address,uint256,bytes)": {
        "details": "See {IERC721-safeTransferFrom}."
      },
      "setApprovalForAll(address,bool)": {
        "details": "See {IERC721-setApprovalForAll}."
      },
      "supportsInterface(bytes4)": {
        "details": "See {IERC165-supportsInterface}."
      },
      "symbol()": {
        "details": "See {IERC721Metadata-symbol}."
      },
      "tokenByIndex(uint256)": {
        "details": "See {IERC721Enumerable-tokenByIndex}."
      },
      "tokenOfOwnerByIndex(address,uint256)": {
        "details": "See {IERC721Enumerable-tokenOfOwnerByIndex}."
      },
      "tokenURI(uint256)": {
        "details": "See {IERC721Metadata-tokenURI}."
      },
      "totalSupply()": {
        "details": "See {IERC721Enumerable-totalSupply}."
      },
      "transferFrom(address,address,uint256)": {
        "details": "See {IERC721-transferFrom}."
      },
      "transferOwnership(address)": {
        "details": "Transfers ownership of the contract to a new account (`newOwner`). Can only be called by the current owner."
      }
    },
    "version": 1
  },
  "userdoc": {
    "kind": "user",
    "methods": {},
    "version": 1
  },
  "storageLayout": {
    "storage": [
      {
        "astId": 129,
        "contract": "contracts/CollabNFT.sol:HiveCollabNFT",
        "label": "_name",
        "offset": 0,
        "slot": "0",
        "type": "t_string_storage"
      },
      {
        "astId": 131,
        "contract": "contracts/CollabNFT.sol:HiveCollabNFT",
        "label": "_symbol",
        "offset": 0,
        "slot": "1",
        "type": "t_string_storage"
      },
      {
        "astId": 135,
        "contract": "contracts/CollabNFT.sol:HiveCollabNFT",
        "label": "_owners",
        "offset": 0,
        "slot": "2",
        "type": "t_mapping(t_uint256,t_address)"
      },
      {
        "astId": 139,
        "contract": "contracts/CollabNFT.sol:HiveCollabNFT",
        "label": "_balances",
        "offset": 0,
        "slot": "3",
        "type": "t_mapping(t_address,t_uint256)"
      },
      {
        "astId": 143,
        "contract": "contracts/CollabNFT.sol:HiveCollabNFT",
        "label": "_tokenApprovals",
        "offset": 0,
        "slot": "4",
        "type": "t_mapping(t_uint256,t_address)"
      },
      {
        "astId": 149,
        "contract": "contracts/CollabNFT.sol:HiveCollabNFT",
        "label": "_operatorApprovals",
        "offset": 0,
        "slot": "5",
        "type": "t_mapping(t_address,t_mapping(t_address,t_bool))"
      },
      {
        "astId": 1068,
        "contract": "contracts/CollabNFT.sol:HiveCollabNFT",
        "label": "_ownedTokens",
        "offset": 0,
        "slot": "6",
        "type": "t_mapping(t_address,t_mapping(t_uint256,t_uint256))"
      },
      {
        "astId": 1072,
        "contract": "contracts/CollabNFT.sol:HiveCollabNFT",
        "label": "_ownedTokensIndex",
        "offset": 0,
        "slot": "7",
        "type": "t_mapping(t_uint256,t_uint256)"
      },
      {
        "astId": 1075,
        "contract": "contracts/CollabNFT.sol:HiveCollabNFT",
        "label": "_allTokens",
        "offset": 0,
        "slot": "8",
        "type": "t_array(t_uint256)dyn_storage"
      },
      {
        "astId": 1079,
        "contract": "contracts/CollabNFT.sol:HiveCollabNFT",
        "label": "_allTokensIndex",
        "offset": 0,
        "slot": "9",
        "type": "t_mapping(t_uint256,t_uint256)"
      },
      {
        "astId": 7,
        "contract": "contracts/CollabNFT.sol:HiveCollabNFT",
        "label": "_owner",
        "offset": 0,
        "slot": "10",
        "type": "t_address"
      },
      {
        "astId": 2021,
        "contract": "contracts/CollabNFT.sol:HiveCollabNFT",
        "label": "baseURI",
        "offset": 0,
        "slot": "11",
        "type": "t_string_storage"
      },
      {
        "astId": 2024,
        "contract": "contracts/CollabNFT.sol:HiveCollabNFT",
        "label": "baseExtension",
        "offset": 0,
        "slot": "12",
        "type": "t_string_storage"
      },
      {
        "astId": 2026,
        "contract": "contracts/CollabNFT.sol:HiveCollabNFT",
        "label": "notRevealedUri",
        "offset": 0,
        "slot": "13",
        "type": "t_string_storage"
      },
      {
        "astId": 2029,
        "contract": "contracts/CollabNFT.sol:HiveCollabNFT",
        "label": "cost",
        "offset": 0,
        "slot": "14",
        "type": "t_uint256"
      },
      {
        "astId": 2032,
        "contract": "contracts/CollabNFT.sol:HiveCollabNFT",
        "label": "maxSupply",
        "offset": 0,
        "slot": "15",
        "type": "t_uint256"
      },
      {
        "astId": 2035,
        "contract": "contracts/CollabNFT.sol:HiveCollabNFT",
        "label": "maxMintAmount",
        "offset": 0,
        "slot": "16",
        "type": "t_uint256"
      },
      {
        "astId": 2038,
        "contract": "contracts/CollabNFT.sol:HiveCollabNFT",
        "label": "nftPerAddressLimit",
        "offset": 0,
        "slot": "17",
        "type": "t_uint256"
      },
      {
        "astId": 2040,
        "contract": "contracts/CollabNFT.sol:HiveCollabNFT",
        "label": "seed",
        "offset": 0,
        "slot": "18",
        "type": "t_uint256"
      },
      {
        "astId": 2043,
        "contract": "contracts/CollabNFT.sol:HiveCollabNFT",
        "label": "paused",
        "offset": 0,
        "slot": "19",
        "type": "t_bool"
      },
      {
        "astId": 2046,
        "contract": "contracts/CollabNFT.sol:HiveCollabNFT",
        "label": "revealed",
        "offset": 1,
        "slot": "19",
        "type": "t_bool"
      },
      {
        "astId": 2049,
        "contract": "contracts/CollabNFT.sol:HiveCollabNFT",
        "label": "onlyWhitelisted",
        "offset": 2,
        "slot": "19",
        "type": "t_bool"
      },
      {
        "astId": 2052,
        "contract": "contracts/CollabNFT.sol:HiveCollabNFT",
        "label": "whitelistedAddresses",
        "offset": 0,
        "slot": "20",
        "type": "t_array(t_address)dyn_storage"
      },
      {
        "astId": 2056,
        "contract": "contracts/CollabNFT.sol:HiveCollabNFT",
        "label": "addressMintedBalance",
        "offset": 0,
        "slot": "21",
        "type": "t_mapping(t_address,t_uint256)"
      }
    ],
    "types": {
      "t_address": {
        "encoding": "inplace",
        "label": "address",
        "numberOfBytes": "20"
      },
      "t_array(t_address)dyn_storage": {
        "base": "t_address",
        "encoding": "dynamic_array",
        "label": "address[]",
        "numberOfBytes": "32"
      },
      "t_array(t_uint256)dyn_storage": {
        "base": "t_uint256",
        "encoding": "dynamic_array",
        "label": "uint256[]",
        "numberOfBytes": "32"
      },
      "t_bool": {
        "encoding": "inplace",
        "label": "bool",
        "numberOfBytes": "1"
      },
      "t_mapping(t_address,t_bool)": {
        "encoding": "mapping",
        "key": "t_address",
        "label": "mapping(address => bool)",
        "numberOfBytes": "32",
        "value": "t_bool"
      },
      "t_mapping(t_address,t_mapping(t_address,t_bool))": {
        "encoding": "mapping",
        "key": "t_address",
        "label": "mapping(address => mapping(address => bool))",
        "numberOfBytes": "32",
        "value": "t_mapping(t_address,t_bool)"
      },
      "t_mapping(t_address,t_mapping(t_uint256,t_uint256))": {
        "encoding": "mapping",
        "key": "t_address",
        "label": "mapping(address => mapping(uint256 => uint256))",
        "numberOfBytes": "32",
        "value": "t_mapping(t_uint256,t_uint256)"
      },
      "t_mapping(t_address,t_uint256)": {
        "encoding": "mapping",
        "key": "t_address",
        "label": "mapping(address => uint256)",
        "numberOfBytes": "32",
        "value": "t_uint256"
      },
      "t_mapping(t_uint256,t_address)": {
        "encoding": "mapping",
        "key": "t_uint256",
        "label": "mapping(uint256 => address)",
        "numberOfBytes": "32",
        "value": "t_address"
      },
      "t_mapping(t_uint256,t_uint256)": {
        "encoding": "mapping",
        "key": "t_uint256",
        "label": "mapping(uint256 => uint256)",
        "numberOfBytes": "32",
        "value": "t_uint256"
      },
      "t_string_storage": {
        "encoding": "bytes",
        "label": "string",
        "numberOfBytes": "32"
      },
      "t_uint256": {
        "encoding": "inplace",
        "label": "uint256",
        "numberOfBytes": "32"
      }
    }
  }
}